:020000040800F2
:100000007807002055020008CD330008C5330008EA
:10001000C9330008711C0008DD370008000000002B
:100020000000000000000000000000001135000882
:10003000751C000800000000D133000815350008C9
:100040006F0200086F0200086F0200086F020008CC
:100050006F0200086F0200086F0200086F020008BC
:100060006F0200086F0200086F0200086F020008AC
:100070006F0200086F0200086F0200086F0200089C
:100080006F0200086F0200086F0200086F0200088C
:100090006F0200086F0200086F0200086F0200087C
:1000A0006F0200086F0200086F0200086F0200086C
:1000B0006F0200086F0200086F0200086F0200085C
:1000C0006F0200086F0200086F020008D5330008B5
:1000D0006F020008D13700086F0200086F020008A5
:1000E0006F0200086F0200086F0200086F0200082C
:1000F0006F0200086F0200086F0200086F0200081C
:100100006F0200086F0200086F0200086F0200080B
:100110006F0200086F0200086F0200086F020008FB
:100120006F0200086F0200086F0200086F020008EB
:100130006F0200086F0200086F0200086F020008DB
:100140006F0200086F0200086F0200086F020008CB
:100150006F0200086F0200086F0200086F020008BB
:100160006F0200086F0200086F0200086F020008AB
:100170006F0200086F0200086F0200080000000014
:100180006F020008791C000800F002F800F052F835
:100190000AA090E8000C82448344AAF10107DA45E2
:1001A00001D100F047F8AFF2090EBAE80F0013F0E2
:1001B000010F18BFFB1A43F001031847F44B00006E
:1001C000144C0000103A24BF78C878C1FAD85207FE
:1001D00024BF30C830C144BF04680C6070470000C1
:1001E0000023002400250026103A28BF78C1FBD840
:1001F000520728BF30C148BF0B607047662904F022
:10020000F284642900F0D480002070471FB504F008
:10021000A4FC00F091FF04000020002104F024FA67
:10022000401C60600020002104F008FAE0601FBD5F
:1002300010B510BD01F05AFA1146FFF7E7FF03F0C1
:10024000CFFA01F0B7FC03B4FFF7F2FF03BC01F0F3
:1002500007FD00000948804709480047FEE7FEE720
:10026000FEE7FEE7FEE7FEE7FEE7FEE7FEE7FEE766
:1002700004480549054A064B70470000C13500088F
:100280008901000878010020780700207803002009
:100290007803002053EA020C00F069802DE9F04B4E
:1002A0004FF00006002B1FBFB3FA83F503FA05F4E5
:1002B00024FA05F65E4012BF1643B2FA82F502FA3E
:1002C00005F4C5F120051EBF22FA05FC44EA0C0422
:1002D000203556EA044C4FEA144418BF641C4FF012
:1002E00000084FF00009904271EB030C39D300294C
:1002F00019BFB1FA81F701FA07F6B0FA80F700FAF0
:1003000007F6C7F120071EBF20FA07FC46EA0C06D5
:100310002037B6FBF4FCA7EB0507103F07F01F0BD7
:10032000CBF120062CFA06F60CFA0BFB44BFB346C1
:100330000026202FA4BF5E464FF0000B5BEA060CA0
:1003400008BF4FF0010B19EB0B0948EB0608ABFB9C
:10035000027C06FB02CC0BFB03CCC01B71EB0C0137
:10036000C1E70B46024641464846BDE8F08B13B54F
:10037000084318BF4FF0FF300146AFF30080BDE8DF
:100380001C4070470FB41CB5084B06AA7B44694655
:100390000090059800F0D3FB04460020694600F069
:1003A000E1FB20461CBC5DF814FB0000D5070000F3
:1003B0002DE9F0410646002410687529314616A53E
:1003C00010D0AFF30080002802DA404213A507E006
:1003D00031688A0701D512A502E0490704D511A5A5
:1003E000012401E0AFF3008000210A2206F1240776
:1003F00009E0B0FBF2FCB0FBF2F302FB1C00303072
:1004000078541846491C0028F3D123462A46304622
:10041000BDE8F04100F027B9000000002D00000009
:100420002B000000200000002DE9F0474FF0000AEB
:1004300089460446C0F820A02046E1688847002885
:1004400076D0252806D0D4E901219047206A401CA7
:100450002062F1E7E168204600258847C4F81CA027
:1004600006460027C4F818A02A2E09D0304604F00A
:1004700096F838B304EB8708303EC8F8186019E0E6
:1004800059F8041B204604EB87029161E168884714
:10049000012F064618D1E069002820DA25F0200552
:1004A0001DE0D8F8180000EB800006EB4000303863
:1004B000C8F818002046E1688847064604F06FF83F
:1004C0000028EED1012F0AD02E2E08D12046E16857
:1004D00088477F1C0646022F45F02005C4DBA06933
:1004E000002803DA404245F00105A061E80701D089
:1004F00025F01005B6B1A6F14100192802D8203622
:1005000045F400654A463146204625604D46FFF7D2
:1005100075FE58B1012806D0ED1D25F0070000F149
:10052000080989E704E005F1040985E730468AE710
:10053000206ABDE8F08700000FB400B58DB010A9A7
:10054000099000910B904FF0FF300A9000200C9022
:10055000064878440690064878446A4607900F9902
:1005600009A800F087FD0DB05DF814FB3F0B0000FB
:10057000570B000030B505460B462A4613F8014BD1
:1005800012F8010B08B1A042F8D01CB1002802D02B
:100590006D1CF1E7284630BD10B5431C02E010F891
:1005A000011B71B18107FAD14FF0013202C88C1AD8
:1005B0008C4314EAC211F9D0C01A0A0603D0C01E37
:1005C00010BDC01A10BD0A0401D0801E10BD090262
:1005D000FCD0401E10BD032A40F2308010F0030C06
:1005E00000F0158011F8013BBCF1020F624498BF86
:1005F00011F801CB00F8013B38BF11F8013BA2F123
:10060000040298BF00F801CB38BF00F8013B11F09D
:10061000030300F05F85083AC0F0088051F8043BFE
:10062000083A51F804CBA0E80810F5E7121D5CBFAA
:1006300051F8043B40F8043BAFF30080D20724BFDD
:1006400011F8013B11F801CB48BF11F8012B24BF71
:1006500000F8013B00F801CB48BF00F8012B7047C0
:100660007047704770472DE9F0470D46994692460E
:10067000044600F124080168880604D5E06921F0E9
:100680001001216000E00120A84201DD471B00E0CD
:100690000027A1697A1902EB0900081AA0612078E5
:1006A000C00602D42046AFF30080002608E0D4E95B
:1006B00001211AF806009047206A401C761C20622F
:1006C0004E45F4DB2078C0060AD52046AFF3008003
:1006D00006E0D4E9012130209047206A401C2062C6
:1006E000381EA7F10107F4DC07E0D4E9012118F86E
:1006F00005009047206A401C2062281EA5F10105D4
:10070000F3DC2046AFF300802078000602D50220FB
:10071000BDE8F0870120FBE72DE9FF4F0C461E46A0
:100720004FF0FF378BB0D2E90001DDF860800A900E
:100730008A46C1F30A5505B93D46002108464FF0E7
:100740000000BAF1000F00F4400005DA00EB800071
:100750004FF4400101EA50004FEA9059B9F1010FFE
:1007600000DDB9460A9850EA4A000ED044F610500F
:10077000A5F2FF3545432F14B8F1000F1ED0754286
:10078000291E1EDDC9F100021CE0B8F1010F4FF077
:10079000000001D0302103E0F24305E02154401C69
:1007A000B042FBDB30460022002121540B99C1F8F6
:1007B0000880C1E900200FB0BDE8F08FBD1B6D1CA3
:1007C000DEE74A4600DA694206A800F019FF06ABE8
:1007D00093E8070003AB83E8070050460A9903F04B
:1007E0002BF98DE80700A0F500501F380090039802
:1007F000002D0ADD42F21F014A460844002303A9E6
:100800000390684603F0D6FB09E0A0F500504A4685
:100810001F38002303A90390684603F0F5FB8DE819
:1008200007000004000C03D04FF0FF30410800E047
:100830001046B8F1000F03D00022009215461EE0CA
:10084000751E05D400F093FC303262556D1EF9D54B
:10085000B3460122084302D000227F1C04E0207826
:10086000302801D100227F1E002A099784D01DE084
:10087000112D07DA00F07BFC303262556D1C50EA16
:100880000102F5D1084302D00098C8B10EE0002162
:10089000681E05E0235C625C63542254401E491CC0
:1008A0008142F7DBAB46A81B401E0990002004F8EC
:1008B0000B000B98099AC0F80880C0E9002B7AE772
:1008C00011264FF0000857E72DE9F04F88460446FF
:1008D000D21D22F0070191B0D1E90001CDE90A0152
:1008E00003F0DEFC02460B98C00F01D02D2007E07C
:1008F0002068810701D52B2002E0202101EAC000F9
:10090000032A099001D0072A05DB03464146204609
:1009100000F07CFC0BE12078800601D5E06900E066
:100920000620B8F1650F814606D0B8F1660F18D0E1
:10093000B8F1670F70D131E00020B9F1110F0090CC
:1009400001DB112301E009F101030AAA01A90CA8A6
:10095000FFF7E2FEDDE90C70002609F10105834690
:1009600047E001204B4600904FF000470AAA01A93A
:100970000CA8FFF7D1FEDDE90DB00C995D4600260D
:1009800010B909F101000D18B9EB050003D4C0F14D
:10099000FF3609F10105A5EB09002BE0B9F1010FC4
:1009A00001DA4FF001090020B9F1110F009048461B
:1009B00001DD112300E003460AAA01A90CA8FFF7F4
:1009C000ABFEDDE90C704D4600268346207800071B
:1009D0000AD4AB4500DA5D4601A8012D04DD4119BA
:1009E00011F8011C302907D04F4502DA17F1040F26
:1009F00004DA012082460FE06D1EEEE7002F02DCD4
:100A0000ED1B3E4403E0781CA84200DD7D1CB81BB2
:100A100000F1010A4FF000472078000703D4AA45EF
:100A200001DB4FF0FF3A0021B7F1004F0DF1430811
:100A30008DF8431024D002202B23002F01DA7F42AF
:100A40002D230A21021EA0F1010000DC5FB197FBFB
:100A5000F1FC97FBF1F201FB1C7C17460CF1300C0A
:100A600008F801CDEEE7A8F101000370218809051F
:100A700001D5452100E06521A0F1010800F8011C25
:100A800009980FA9A1EB0807FF1D00B1012041192A
:100A900001EBEA70A1693844081A401EA061207871
:100AA000C00602D42046AFF30080099828B1D4E9EB
:100AB00001219047206A401C20622078C00622D580
:100AC0002046AFF300801EE0002E04DBB34502DDBC
:100AD00001A8805D00E03020D4E901219047206A20
:100AE000401C2062761CAAF101005FEA000A0AD1CC
:100AF00000F022FBC0680168405CD4E90121904706
:100B0000206A401C2062281EA5F10105DCDC07E0FC
:100B1000D4E9012118F8010B9047206A401C20629B
:100B2000381EA7F10107F3DC2046AFF30080032055
:100B300011B041E601694A1C02610878704700B5AE
:100B40008FB0CDE901310021059105497944CDE906
:100B5000031011466846FFF767FC0FB000BD0000A8
:100B6000E5FFFFFF0A6802F8010B0A60704700000A
:100B70002DE9FF4F06468BB00878FF2806D0491CA8
:100B80002D2805D000244FF0000908E000200CE0DB
:100B90000124F8E709EB8903491C00EB43090878B5
:100BA000FF28F7D114B1C9F1000081461078002563
:100BB0002C46AA4629462D2801D02B2804D1521CA8
:100BC0002D2813D0002082468B461078FF280FD0A6
:100BD0004FF0000C0A21521CA5FB017804FB018197
:100BE00005FB0C11C5194BEB0104EEE70120EAE708
:100BF000002108464FF00000BAF1000F02D000EBD0
:100C000080004008C0F38157012F01DD4FF0FF370E
:100C10000E9955EA040009EB01080BD04FF00209C8
:100C200018F5FA7F16DA4FEACA70002F706008DDF7
:100C3000012007E04FEACA70C6E900B00FB0BDE876
:100C4000F08F0020306000F07BFAC0F8009018218F
:100C5000084616E0B8F5FA7F18DD002F02DAF748EB
:100C6000784401E0F6487844D0E90010C6E9001065
:100C700040EACA70706000F063FAC0F80090142176
:100C800008460FB0BDE8F04F03F0AABF00210846A8
:100C90004FF00000B8F10001099002DAC7F100023C
:100CA00000E03A4601DAC8F1000106A800F0A8FC0D
:100CB00006AB93E8070003AB83E8070044F23E006D
:100CC0005BEA04010090584604D144F21E012C4610
:100CD0005D460091210C0904014306D100992404CA
:100CE00044EA15442D041039009104F07F4101437A
:100CF00006D10099240244EA15642D0208390091B6
:100D000004F07041014306D10099240144EA1574AE
:100D10002D01091F009104F04041014306D10099C3
:100D2000A40044EA9574AD00891E009104F00041CE
:100D3000084304D100986D196441401E00904FF0A3
:100D400001033A466846B8F1000FCDE9014503A911
:100D500002DD03F06EF901E003F041F9BAF1000F92
:100D600004460D4601D084F00044002108464FF0AF
:100D70000000099940F2FF77484010F00C0F07D1AE
:100D800024F00040284303D0C4F30A50B84212D1E3
:100D900000F0D6F9C0F80090C4F30A50B8420AD166
:100DA000A8487844D0E90010C6E9001004F00041DA
:100DB0000843706042E7C6E900543FE72DE9FF4F62
:100DC0001F464FF0000A4FF0FF38454691B0D7E973
:100DD0000146CDF83CA000F0AFF9C0680168405C66
:100DE0001090B96912986D1C8847396A8146884706
:100DF0000028F6D1B9F1FF3F0AD0002E24F4D064C8
:100E000011DDB9F12B0F08D0B9F12D0F0BD102E094
:100E1000404615B013E744F48064B96912986D1C1C
:100E20008847761E8146600504A901D52D2000E083
:100E30002B20002E01F1010B0DF130088DF8100070
:100E40003FDDB9F1690F08D0B9F1490F05D0B9F10B
:100E50006E0F02D0B9F14E0F1CD13B4601A8009590
:100E600080E85002DDE912126FF0020003F021FF6A
:100E7000C11CCED10EE0B96912986D1C884781461D
:100E80001398761E44F4007405600F98401C002EE1
:100E90000F9016DDB9F1300FEDD0B9F1780F02D017
:100EA000B9F1580F0DD10F9801280AD13B46CDE971
:100EB0000054DDE91212001F029603F0F8FEC11C77
:100EC000A7D1109989453ED144F0800406E01399DA
:100ED000681CAAF1010A44F400740860B9696D1C29
:100EE0001298761E884730288146F0D02BE0109962
:100EF000894505D1200603D4761E44F0800418E00D
:100F0000484603F04CFB08B3761E0DF123029345CF
:100F1000A9F1300044F4007406D20BF8010B20064E
:100F200007D5AAF1010003E0200602D40AF101006E
:100F30008246A00502D51399681C0860B969129809
:100F40006D1C88478146002ED1DC53E0002E51DD18
:100F5000B9F1650F02D0B9F1450F4BD1A00549D5C4
:100F6000B9696D1C1298761E24F440748847002ECF
:100F700081460CDD2B2804D0B9F12D0F07D144F4A4
:100F80008074B96912986D1C8847761E8146E00509
:100F900001D52D2100E02B2108F8011BCDF80080A0
:100FA00021E0761E0DF13901884544F400740CD21D
:100FB000A9F1300010F0FF0088F8000002D100997C
:100FC000884509D908F1010806E0E00501D51E4869
:100FD00001E042F20F708246B96912986D1C884791
:100FE000814613980560002E04DD484603F0D7FAC9
:100FF0000028D6D1F96912988847FF2053468BF80C
:10100000000088F8000000200A900B9004AA0CA9A8
:101010000AA8FFF7ADFDA00502D46FF00100F8E6C5
:1010200014F0240F12D0E0071CD13868DDE90A1251
:10103000031D3B600068C0E9001213E0744100002A
:10104000664100002A400000F1D8FFFF0AA9684667
:1010500003F092FAE00705D13868009A011D396063
:10106000006802602846D4E60268114413780160E3
:1010700018467047D1600549794451610449794463
:10108000116200211161114600F000B9EDFFFFFF70
:1010900077010000426842B1016811F8013B23B1B9
:1010A000521EC0E90012184670470121C160881E17
:1010B000704742685AB1C368016843B983688B427C
:1010C00005D0491E521CC0E90012002070474FF0A5
:1010D000FF30704710B5203AC0F00B80B1E81850CF
:1010E000A0E81850B1E81850A0E81850203ABFF412
:1010F000F5AF5FEA027C24BFB1E81850A0E81850B1
:1011000044BF18C918C0BDE810405FEA827C24BF04
:1011100051F8043B40F8043B08BF7047D20728BF92
:1011200031F8023B48BF11F8012B28BF20F8023BE1
:1011300048BF00F8012B704700487047300000207E
:101140000048704710000020B2F120030AD5C2F118
:10115000200301FA02F120FA03F341EA030100FA45
:1011600002F0704700FA03F14FF00000704730B50D
:10117000B0F10A0271F100034FEA900E4EEA817E4F
:10118000B0EB0E0061EB91014FEA101E4EEA017EBA
:1011900010EB0E0041EB11114FEA102E4EEA016EDA
:1011A00010EB0E0041EB11214FEA104E4EEA014EBA
:1011B00010EB0E0041EB1141401841F100014FEAE4
:1011C000D00040EA41704FEAD1014FEA810444EA7D
:1011D000907410EB800544EB01046D1944EB04049A
:1011E000521BA3414FF0000348BF0A3200D530BD67
:1011F000401C41F1000130BD10B5044600F09CFADE
:101200000068005D00F0010010BD00002DE9F04114
:101210001F46044603260168072A01F4006004DB28
:1012200008B116A505E016A503E008B115A500E074
:1012300015A521F010002060A069C01EA0610FB1AB
:10124000401EA0612046AFF300804FB1D4E90121D8
:1012500038469047206A401C2062C01C206206E08D
:10126000206AFAE7D4E9012115F8010B9047761EB0
:10127000F8D22046AFF30080BDE8F0814E414E0029
:101280006E616E00494E4600696E66002DE9F34FAF
:101290004FF0000A0C4656468DB001200C9001F12B
:1012A0000C000B9062690B9801219047051E2DD010
:1012B000252D2CD0216A8847C0B162690B98012185
:1012C0009047216A88470028F7D16269411E0B9830
:1012D000904700E0761CA1690D988847216A8847ED
:1012E0000028F7D1E1690D988847DBE7A1690D98DF
:1012F0008847A842074601D1761CD3E7E1690D98DB
:1013000088477F1C02D1BAF1000F6FD06BE1626990
:101310000B9800273D46394690472A2804D1626938
:101320000B98012190470125DFF8D08262690B9864
:1013300001219047A0F130010A290AD24745E5DC96
:1013400007EB870100EB4107303FDFD445F0100584
:10135000ECE7E90601D46FF000476C280AD04C286E
:1013600014D0682815D06A280DD074281CD07A288B
:101370001AD01DE062690B98012190476C2802D0B9
:1013800045F0040514E045F002050DE045F02005A8
:101390000AE062690B9801219047682802D045F065
:1013A000080505E045F4006562690B980121904746
:1013B000C4E9015765283DD019DC58287AD00CDCE7
:1013C000452837D004DC252826D041289ED131E09D
:1013D00046282FD0472899D12CE05B2877D0612868
:1013E00028D063287CD0642823D15AE0F6E06F2807
:1013F00048D008DC66281DD067281BD0692821D07A
:101400006E2816D127E0702845D0732868D075283B
:1014100047D078280DD14DE0A1690D98884725283F
:1014200005463FF469AFE1690D9888476D1C3FF4AC
:101430006AAFD8E00D9923466A466FF0010003F0C9
:1014400034FCC5E045F0400023464FF000026060E8
:10145000A80736D43EE0E8077FF447AF2068011DB7
:1014600021600068290501D506701BE7290701D511
:10147000068017E7A90703D5F117C0E9006111E756
:1014800006600FE745F0400023464FF00802606019
:10149000A80716D41EE040F60E0125EA01006060A0
:1014A00016E045F0400023464FF00A026060A807AE
:1014B00007D40FE045F040006060A80708D5234638
:1014C00010220D996FF00100AFF3008080E007E07B
:1014D000102223460D996FF00100AFF3008077E0F2
:1014E0004FF0000963284F46C8464B46CB4602D012
:1014F0005B2806D038E0E80601D40120A06001276F
:1015000032E06269D4F80CB00B98012190475E2854
:1015100007D14FF0010949466269D4F80CB00B9825
:101520009047216939B900210A4603AB43F82120CD
:10153000491C0829FADBD8B3216949B308F101082D
:1015400062690B98012190475D28F4D1B9F1000F31
:1015500009D0002003A951F82020D24341F82020CF
:10156000401C0828F7DB03AB2069002820794FEAEC
:1015700040701ED05B462246CDF80080CDE9019731
:101580000D9900286FF0010020DAAFF300801FE012
:10159000C11703AA00EBD1614B1121F01F0102EB2F
:1015A0008302411A13680120884003431360C7E790
:1015B00019E00D99224600286FF00100009702DA29
:1015C000AFF3008004E0AFF3008001E0AFF30080F0
:1015D00000280ADA401C06D10C9820B14FF0FF30E9
:1015E0000FB0BDE8F08F5046FAE7E90701D10AF1E4
:1015F000010A064400200C9054E60000CCCCCC0C30
:101600002DE9F047814616468AB0354878440DC822
:101610008DE80D0032487844801C03AC0DC884E886
:101620000D0041F69B300844372190FBF1F290FB0E
:10163000F1F5A5F1800501FB12041B3C02D56442C3
:10164000012000E00020DFF898A080460027FA443F
:10165000AAF1BE0A0EE0E0070AD03246684607EB60
:10166000470101230AEB810102F0CEFC8DE807005F
:1016700064107F1C002CEED1194F7F44AE3F19E05F
:10168000E80715D007EB04100DF1180A90E80E00DA
:101690008AE80E00C068F04201D1981908903246DD
:1016A000012306A903A802F0AFFC03AB83E80700FF
:1016B0006D10641C002DE3D14FF0010332466946E2
:1016C000B8F1000F03A802D002F074FC01E002F0B0
:1016D0009BFCC9E90001C9F808200AB0BDE8F08701
:1016E0005437000000487047100000207546FFF78F
:1016F000F9FFAE4605006946534620F007008546CF
:1017000018B020B5FEF7B4FDBDE820404FF000064C
:101710004FF000074FF000084FF0000BAC46ACE86C
:10172000C009ACE8C009ACE8C009ACE8C00921F0C8
:1017300007018D467047000010B5FFF7FDFC001D46
:1017400010BD00BF252F000010B5FFF7F9FC0068A1
:1017500010BD10B50446FFF7F3FC046010BD000097
:101760002DE9FF4F1F464FF03C0987B04FF0004274
:10177000DDE9141001F10108DDF858A002EA40503B
:101780000390002005908346054604460490B969FD
:10179000461E08988847AAF1010A0290BAF1000F84
:1017A0003BDD02982E2815D0102100F04BFA0028BE
:1017B0002EDB4FF0010B0599014317D0B9F1000F53
:1017C0000BDB4A46C117FFF7BFFC05430C43A9F1E9
:1017D000040905E0012004900BE008B145F0010583
:1017E00001200590049820B9361D02E0049800B14C
:1017F000361FB969089808F101088847BBF1000F46
:10180000AAF1010A0290C9D00999C1F80080C5E780
:101810000298702808D0502806D0F969089888479F
:10182000BBF1000F14D04FE0002002900120BBF16B
:10183000000F049009D0B969089808F10108884799
:10184000AAF10109B9F1000F07DCF9690898884786
:101850006FF001000BB0BDE8F08F2B2804D02D28CD
:101860000CD14FF0FF300490B969089808F10108D5
:101870008847A9F10109B9F1000FE6DD411CE4D068
:101880000A2100F0DFF90028DFDB029908F10108E6
:1018900001EB810100EB41000290B969089888478B
:1018A0000A2100F0CFF9099AA9F10109B9F1000F55
:1018B000C2F8008001DD0028E7DAF9690898884756
:1018C0000499029800FB016655EA040004D004F074
:1018D0004041090002D006E0039898E0A40044EAE1
:1018E0009574AD00B61E04F00041080002D16D19D8
:1018F0006441761E159810F0240F03D04FF00B09A9
:101900005C4803E04FF028096FF07D0082465645A1
:1019100007DAAAEB06018944B9F1410F01DD4FF066
:10192000410901200021A9F10102FFF70DFC024647
:1019300028400B462140084301D0012100E000214E
:10194000501E029143F1FF3128402140084301D04D
:10195000012000E000200299834651EA0B014FD09C
:10196000002108464FF00000039900F4400039B10F
:1019700000EB80004FF4400100EBD07001EA600002
:101980008015012802DD4FF0FF3000E013D0401C2D
:1019900036D0029860B3BBF1000F0CD14A4601204B
:1019A0000021FFF7D1FB28402140084301D001204E
:1019B00000E00020E0B101204A460021FFF7C4FB0F
:1019C000034640190A4661412D1A8C4111D3B9F1E1
:1019D000400F09DD159810F0240F02D0AAF134064B
:1019E00003E0AAF1170600E0761C00254FF0004442
:1019F00006E05B1E42F1FF3220EA030521EA020401
:101A0000CAF10100B04206DA1B490398084301906D
:101A1000002000900EE0039AC4F3D321E80A0A43A1
:101A2000164940EA44500A433146CDE9000268466F
:101A300002F0ABFD159810F0240F0BD01598C007DD
:101A400015D13868DDE90012031D3B600068C0E96C
:101A500000120CE002A8694602F08EFD1598C0073E
:101A600005D13868029A011D39600068026040465D
:101A7000F0E6000002FCFFFF0000F07F0000F03FF6
:101A80002DE9FF4F92461D4685B04FF00041DDE93C
:101A9000124BDDE914727F1E01EA4B50414940F0C0
:101AA000FF4940EA0108002122F020004928049162
:101AB00002D04E2828D04CE03BA0012607C88DE874
:101AC0000700A9690698641C88477F1E014606D452
:101AD0001DF8060018B121F0200181420BD0E96900
:101AE00006988847032E34D0082E32D06FF00100BC
:101AF00009B0BDE8F08F761C032E01D0082EE0D18E
:101B0000601CCAF80000DCE7A9690698641C8847D5
:101B10007F1E2AD420F02000412826D1A9690698EA
:101B2000641C88477F1E20D420F020004E281CD142
:101B3000A9690698641C88477F1E48F4002849F468
:101B40008009CAF8004001D4282806D0E96906981F
:101B500088475FEACB7012D022E0A9690698641C1E
:101B600088477F1E01D4002803DAE9690698884770
:101B7000BCE72928F1D1641CCAF80040E9E71BF052
:101B8000240F07D028680499031D2B600068C0E962
:101B9000001805E02868021D2A600068C0F800905F
:101BA0002046A5E70000F07F494E46494E4954596A
:101BB0000000000010B50446AFF300802046BDE8E9
:101BC0001040FEF740BB000030B44FF0013C50F82D
:101BD000042B51F8043BCCFA52F4D51A20D1FCB9AD
:101BE00050F8042B51F8043BCCFA52F4D51A17D113
:101BF000B4B950F8042B51F8043BCCFA52F4D51A7E
:101C00000ED16CB950F8042B51F8043BCCFA52F4C5
:101C1000D51A05D1002CDAD030BC4FF00000704747
:101C200029BAB1FA81F111F01801D1F120008440F4
:101C3000F2D1CA40CB4012F0FF0213F0FF0330BCD8
:101C4000D01A70473A2800D2303820F02002412ABA
:101C500001D3A2F13700884201D34FF0FF30704723
:101C600001491820ABBEFEE72600020070470000C5
:101C7000FEE70000704700007047000070B5866DF9
:101C8000044600F043F994F83510022928D105469E
:101C90002068216C026822F016020260426922F07C
:101CA0008002426109B9A16C19B1016821F00801F3
:101CB0000160016821F00101016000BF2068006837
:101CC000C00715D000F022F9401B0628F6D32020CB
:101CD0006065032084F83500002184F8341070BD5D
:101CE000802060650120002184F8341070BD00BFA1
:101CF000E06D3F2101FA00F0B060012084F835006A
:101D00000020002184F8341070BD000090F83510D8
:101D1000022909D1052180F835100068016821F0F9
:101D2000010101600020704780214165012070475A
:101D3000B0B5044600F0EAF8054640F20000C2F2F1
:101D400000000078611C18BF044400BF00F0DEF8FA
:101D5000401BA042FAD3B0BD2DE9F04F82B000F194
:101D60003E4241F6004502F1FF77C4F20205082227
:101D700043F6004E4FEAB726A84208BF0722C4F236
:101D8000010E072E38BF4FEAB72201250026002793
:101D90004FF00008009208E008F101080437B8F19C
:101DA000100F06F1020600F0A7800C6805FA08F98A
:101DB00014EA090FF0D0D1F804B003220BF0030CA1
:101DC000ACF10104B240012C6FEA020A10D882681B
:101DD000CC6802EA0A02B440224382604268CBF334
:101DE000001422EA090204FA08F42243426005E0E2
:101DF000BCF1030F02D14FF0030C20E0C2688C68E5
:101E000002EA0A02B4402243BCF1020FC26016D1BA
:101E10006FF0030202EA58020244D2F820C007F031
:101E20001C050F230C69AB402CEA030304FA05F5EB
:101E30002B431362D1F804B001250BF0030C0268A8
:101E40000CFA06F302EA0A021A431BF4403F02604E
:101E5000A2D0002243F644030192C4F202031A689E
:101E60004FF6084C42F480421A601A68CFF6FF7CA5
:101E700002F480420192019A28F00302724452F85F
:101E80000C3007F00C050F24AC40A343009C04FA6F
:101E900005F52B4342F80C30DEF808204B6842EA87
:101EA000090543F60C4CDC0258BF22EA0905CEF8BE
:101EB0000850C4F2010CDCF800209C0242EA09053B
:101EC00058BF22EA0905CCF80050DEF804209C0334
:101ED00042EA090558BF22EA0905CEF80450DEF8A7
:101EE0000020DB0342EA090558BF22EA0905CEF8C3
:101EF0000050012550E700BF02B0BDE8F08F0000A0
:101F0000002A08BF090481617047000040F2741084
:101F1000C2F200000068704740F2000040F2741105
:101F2000C2F20000C2F2000100780A6810440860A2
:101F30007047000080B543F60040C4F2020001681B
:101F400041F400710160016841F480610160016841
:101F500041F480710160032000F092F80F2000F03E
:101F600005F800F027F8002080BD000070B540F2B1
:101F70000006C2F2000640F208013278C2F2000107
:101F80004FF47A730968B3FBF2F20446B1FBF2F145
:101F9000084600F0BBFD0F2C4FF0010508D838B9FA
:101FA0004FF0FF3021460022002500F03DF874601C
:101FB000284670BD80B582B0002043F640010190F4
:101FC000C4F202014A6842F480424A604A6802F45C
:101FD00080420192019A00900868002240F08050EF
:101FE00008600868002100F080500090009851209F
:101FF00000F01AF8512002B0BDE88040AFF3008035
:10200000002848BF7047C1B200F01F00012202FA49
:1020100000F04EF20012CEF2000242EAD10121F0AD
:10202000030108607047000010B54EF60C5CCEF25C
:10203000000CDCF80030C3F3022E8EF00704042CF1
:1020400028BF0424BEF103034FF0FF3E0EFA04F450
:1020500038BF0023A14399400EFA03F39A4311437A
:1020600000F00F0200F160430901043A03F56443F4
:102070006244002848BF02F10C03197010BD000033
:102080004EF60C51CEF200010A684FF6FF031A40DB
:1020900060F30A2242F0806040F0FD7008607047F3
:1020A0002DE9F041002800F08B8043F60808C4F2C7
:1020B00002080446D8F8F8030D4600F007008842ED
:1020C00007D288F8F853D8F8F80300F00700A842C0
:1020D00076D12068810717D5410705D5D8F80010BB
:1020E00041F4E051C8F80010010705D5D8F80010F8
:1020F00041F46041C8F80010D8F80010A26821F03F
:10210000F0011143C8F80010C0073FD1D8F8F80318
:1021100000F00700A84207D988F8F853D8F8F80368
:1021200000F00700A8424BD12068410707D5D8F836
:102130000010E26821F4E0511143C8F800100007D4
:1021400008D5D8F80000216920F4604040EAC100B9
:10215000C8F8000000F07CF8D8F8001044F67C5273
:10216000C1F30311C0F60002515C40F2080220FAEC
:1021700001F140F20400C2F200000068C2F2000265
:102180001160FFF7F3FE0020BDE8F0816068811E5A
:10219000022907D258F8081C89015CBF0120BDE85C
:1021A000F08111E0012807D158F8081C89035CBFB1
:1021B0000120BDE8F08107E058F8081C890703D426
:1021C0000120BDE8F08100BFD8F8001021F0030124
:1021D0000843C8F80000FFF799FE064641F2883729
:1021E000D8F80000616800F00C00B0EB810F8DD0D2
:1021F000FFF78CFE801BB842F2D90320BDE8F081C6
:1022000040F2080043F60801C2F20000C4F20201E5
:102210000068096844F68C52C1F38221C0F60002BE
:10222000515CC8407047000040F2080043F60801C6
:10223000C2F20000C4F202010068096844F68C5240
:10224000C1F34231C0F60002515CC8407047000043
:1022500010B543F60404C4F20204606800F00C01F7
:1022600042F200400829C0F2F40007D0042918BF48
:1022700010BD41F20020C0F27A0010BD216801F0CB
:102280003F02216823684902C3F3881106D4A1FBE9
:1022900000010023FDF7FEFF07E000BF41F2002030
:1022A000C0F27A004843B0FBF2F021680222C1F389
:1022B000014102EB4101B0FBF1F010BD2DE9F0410D
:1022C00082B0002868D00446007843F60006C007B4
:1022D000C4F202060BD0B06800F00C00042840F0F5
:1022E0009F803068800302D56068002854D0207831
:1022F00080071AD5B06810F00C0F09D0B06800F054
:102300000C00082840F0A6807068400200F1A2800E
:102310003068800702D5E06801283DD13068216926
:1023200020F0F80040EAC10030602078000737D480
:10233000207840074CD4A56955B3B06800F00C0074
:10234000082840F0BB80012D26D07068E16900F4B8
:1023500080028A4220D1216A00F03F028A421BD1CA
:1023600047F6C071626A0140B1EB821F14D1A16AC5
:102370004FF6FF73C903994300F44032A1F5803151
:102380008A4209D1E16A00F07060B0EB016F03D1BD
:10239000002002B0BDE8F081012002B0BDE8F0816C
:1023A0006069002840F20000C4F2472076D0012185
:1023B000C0F8801EFFF7AAFD054600BF706F8007BA
:1023C000B6D4FFF7A3FD401B0228F7D9DDE000BF1C
:1023D000306C10F080580AD100200190306C40F031
:1023E00080503064306C00F080500190019847F2CA
:1023F0000007C4F200073868C00541D4386840F4CB
:1024000080703860FFF782FD054600BF3868C00560
:1024100036D4FFF77BFD401B0228F7D9B5E000BF9B
:10242000B06800F00C00082803D1706840023FF546
:1024300058AF6068B0F5803F07D0B0F5A02F40F0EE
:102440008D80306840F480203060306840F4803007
:1024500030608DE0E068002852D00020C4F24720B0
:1024600001210160FFF752FD054600BF306880077B
:102470003FF554AFFFF74AFD401B0228F6D984E030
:10248000A068012805D005284ED1306F40F0040027
:102490003067306F40F0010030674FE00021C0F836
:1024A000801EFFF733FD0546706F80077FF540AF54
:1024B000FFF72CFD401B0228F6D966E00027C4F286
:1024C000472700203866FFF721FD022D05460BD176
:1024D000306880015ED5FFF719FD401B02284FF0E0
:1024E0000300F5D955E700BF306880017FF550AF94
:1024F000FFF70CFD401B02284FF00300F4D948E71A
:102500000020C4F2472000210160FFF7FFFC0546D0
:10251000306880077FF509AFFFF7F8FC401B022801
:102520004FF00300F4D934E7316F002821F00101A6
:102530003167316F21F0040131674DD0FFF7E6FCC0
:10254000054641F2883700BF306F800756D4FFF749
:10255000DDFC401BB842F7D917E000BF3168002806
:1025600021F480313160316821F4802131604FD015
:10257000FFF7CCFC054600BF306880033FF5B7AEDF
:10258000FFF7C4FC401B6428F6D9032002B0BDE865
:10259000F08100BF04F11C052FCD084340EA8210F2
:1025A000D9034FF6FF729143A1F5803140EA0560EF
:1025B0000843706001203866FFF7A8FC044600BF9E
:1025C000306880013FF5E4AEFFF7A0FC001B022855
:1025D0004FF00300F4D9DCE6FFF798FC054641F222
:1025E000883700BF306F800708D5FFF78FFC401B8E
:1025F000B8424FF00300F5D9CBE600BFB8F1000FA9
:102600007FF499AE306C20F08050306493E600BFC8
:10261000FFF77CFC054600BF306880037FF567AE9E
:10262000FFF774FC401B64284FF00300F4D9B0E6B8
:1026300070470000B0B582B0044600684168826807
:1026400012F0400305D112F0010518BF11F040054A
:1026500012D1950708D511F0800505D0616C204690
:1026600002B0BDE8B040084712F4B07F18BF11F0C7
:10267000200507D102B0B0BD216C204602B0BDE8F4
:10268000B0400847BBB194F85130032B08D100216A
:102690000191C168019180680190019802B0B0BDBC
:1026A000636D43F00403636500230193C3680193E2
:1026B00083680193019B12F0200302F4807203D11E
:1026C0008AB9626DDAB9D5E7636D43F001036365DA
:1026D0000023019383680193036823F040030360A0
:1026E000019B002AEDD0626D42F008026265002273
:1026F000019282680192019A626D002ABAD0426802
:10270000890722F0E00242604FF0010284F8512074
:1027100020D0416843F2E13521F003014160E06CD3
:10272000C0F6000538B10565FFF7F0FA18B1606D25
:1027300040F040006065A06C00289BD00565FFF765
:10274000E5FA00283FF496AF606D40F04000606508
:1027500002B0B0BD204602B0BDE8B040FFF768BF90
:1027600070B538B10446406A30B10020206104F1F0
:10277000140007E0012070BD6068B0F5827F03D0CF
:1027800004F11C00002101600026A66294F85100AB
:1027900020B9204684F8506000F03CF8022084F80C
:1027A000510094E80F0001F48271056802F40442BC
:1027B00025F040050560114403F4006223691144CB
:1027C00003F002026369114403F00102A369E569A1
:1027D000114403F40072114405F03802256A1144D3
:1027E00005F08002A56A114305F40052114301600F
:1027F000626A042101EA134102F0100211444160AF
:10280000C16921F40061C1610120666584F851004D
:10281000304670BD80B586B0016843F20000C4F256
:102820000100814202D006B080BD00BF002143F606
:1028300030020191C4F20202536900F5504043F4A2
:1028400080535361536903F480530193019B0191B9
:10285000136843F001031360126802F00102019251
:10286000019AE02201920222CDE902210321049182
:102870000521059101A9FFF76FFA2320002100220D
:10288000FFF7D2FB2320FFF7BBFB06B080BD0000A3
:102890002DE9F04184B01D4616460F460446FFF769
:1028A00035FB94F8511001290ED18046002F4FF0CE
:1028B000010018BF002E03D104B0BDE8F08100BFB5
:1028C00094F85000012803D1022004B0BDE8F08143
:1028D000012084F850000320002184F85100616534
:1028E0002763A686E686A163A187E187A0682164A5
:1028F000B0F5004F2068616407D1016821F0400104
:102900000160016841F4804101600168490603D417
:10291000016841F0400101606168731EE268B1FA2C
:1029200081F1B3FA83F349095B09B2F5006F41EA1B
:10293000030139D131B137F8021BC1602763E08E42
:102940000138E086E08E002870D0681C0BD11AE0B8
:10295000216B31F8022BC2602163E08E0138E086E2
:10296000E08E002862D0206881688907F0D4FFF7E4
:10297000CDFAA0EB0800A842F2D338E0FFF7C6FA80
:10298000E08E002852D0206881688907F6D5216B37
:1029900031F8022BC2602163E08E0138E086E08EC0
:1029A0000028F0D142E000BF39B139780173206BC3
:1029B00001302063E08E0138E086E08EB0B3681C01
:1029C0000BD123E0216B09780173206B0130206368
:1029D000E08E0138E086E08E40B320688168890788
:1029E000F0D4FFF793FAA0EB0800A842F3D301203C
:1029F00084F85100002084F85000032004B0BDE8A2
:102A0000F08100BFFFF782FAE08E78B1206881681C
:102A10008907F7D5216B09780173206B013020639A
:102A2000E08E0138E086E08E0028EFD120460221BA
:102A300001222B46CDF8008000F0D8FCE0B1606D9B
:102A400040F02000606520206065A06838B9002053
:102A500002902068C168029180680290029801206B
:102A600084F85100002084F85000606D002818BFE1
:102A7000012004B0BDE8F08140F20800C2F200007D
:102A8000006849F68171C1F25E61A0FB0101480D49
:102A90004FF47A71484303906068B0F5827F0BD1A0
:102AA0002046802100222B46CDF8008000F09EFCBD
:102AB0000028C4D1C9E700BF03980028C5D00398F7
:102AC00001380390206880680006BED5039800286E
:102AD000BBD0039801380390206880680006B4D505
:102AE00003980028B1D003980138039020688068CB
:102AF0000006AAD503980028A7D0039801380390B0
:102B0000206880680006D7D49FE70000411E00209F
:102B1000B0EB116F1CBF012070474EF21002CEF2D5
:102B2000000251604EF62351CEF20001F0230B70EB
:102B300007219060116070477047000070470000E7
:102B4000B0B582B0044600680168C368426901F00C
:102B50002F05202D03F0200506D12DB1204602B00F
:102B6000BDE8B04000F03CBD5FEA017C1EBF02F052
:102B7000010E03F4907212EB0E0253D1226B012A64
:102B800005D111F0100218BF13F0100236D10A0659
:102B900022D513F080021FD094F8411021293FD193
:102BA000A168B1F5805F03D12169002900F082821C
:102BB000216A4A1C226209784160E18C01390A04C9
:102BC000E1842DD1C16821F08001C160C16841F06C
:102BD0004001C16002B0B0BD490621D513F04001EB
:102BE0001ED0C16821F04001C1602021204684F838
:102BF000411002B0BDE8B04000F0E2BB00210191FD
:102C0000016801914168019101994069400613D41E
:102C1000A08DE18DE28D002A18BF884240F0CC8162
:102C200002B0B0BDCA0718BF13F4807240F0BE8076
:102C30004A0700F1C180C6E0E06B01684A68A38DD5
:102C400091B2002900F0A881994280F0A581E28527
:102C5000C069B0F5807F00F09D80206850E8030FC8
:102C6000216820F4807041E80302DAB1206850E85E
:102C7000030F216820F4807041E8030292B12068BC
:102C800050E8030F216820F4807041E803024AB144
:102C9000206850E8030F216820F4807041E80302A7
:102CA000002ADAD1206850E8050F216820F00100E1
:102CB00041E80502BAB3206850E8050F216820F00A
:102CC000010041E8050272B3206850E8050F216851
:102CD00020F0010041E805022AB3206850E8050F02
:102CE000216820F0010041E80502002ADAD11AE04B
:102CF000206850E8050F216820F0400041E80502F7
:102D0000DAB1206850E8050F216820F0400041E862
:102D1000050292B1206850E8050F216820F04000BC
:102D200041E805024AB1206850E8050F216820F00B
:102D3000400041E80502002ADAD1202084F8420050
:102D400000202063206850E8030F216820F0100065
:102D500041E80302DAB1206850E8030F216820F04F
:102D6000100041E8030292B1206850E8030F216887
:102D700020F0100041E803024AB1206850E8030F38
:102D8000216820F0100041E80302002ADAD1E06B4C
:102D9000FEF774FF02206063A08DE18D401A81B2BE
:102DA000204602B0BDE8B040FFF7C6BE626C42F0FC
:102DB000010262644A0706D5BEF1000F03D0626CBF
:102DC00042F0020262648A0706D5BEF1000F03D00A
:102DD000626C42F004026264BCF1000F09D545EA5E
:102DE0000E02B2FA82F2520903D1626C42F008027A
:102DF0006264626C002A3FF413AF11F0200118BF27
:102E0000002D03D0204600F0EBFB20684069616C88
:102E100000F0400001F00801401800F0B58000BF4C
:102E2000206850E8030F216820F4907041E8030205
:102E3000BAB3206850E8030F216820F4907041E88D
:102E4000030272B3206850E8030F216820F49070E9
:102E500041E803022AB3206850E8030F216820F4F8
:102E6000907041E80302002ADAD11AE0206850E8A5
:102E7000050F216820F0010041E80502DAB1206861
:102E800050E8050F216820F0010041E8050292B1E9
:102E9000206850E8050F216820F0010041E8050294
:102EA0004AB1206850E8050F216820F0010041E890
:102EB0000502002ADAD1206B012824D1206850E8CD
:102EC000030F216820F0100041E80302DAB1206806
:102ED00050E8030F216820F0100041E8030292B18E
:102EE000206850E8030F216820F0100041E8030239
:102EF0004AB1206850E8030F216820F0100041E833
:102F00000302002ADAD1202084F842000020206346
:102F100020684069400649D5206850E8050F2168BF
:102F200020F0400041E80502DAB1206850E8050FC2
:102F3000216820F0400041E8050292B1206850E885
:102F4000050F216820F0400041E805024AB12068E1
:102F500050E8050F216820F0400041E80502002AF2
:102F6000DAD1E06B10B343F2D551C0F60001016530
:102F7000FEF7CCFE00283FF453AEE06B016D02B0CB
:102F8000BDE8B040084700BF2046FFF7D7FD00204E
:102F9000606402B0B0BD00BF8B427FF441AEC06937
:102FA000B0F5807F7FF43CAE02227CE0204602B088
:102FB000BDE8B040FFF7C2BD401A216851E8031FC9
:102FC000226821F4907142E80313DBB1216851E8D3
:102FD000031F226821F4907142E8031393B1216822
:102FE00051E8031F226821F4907142E803134BB1AA
:102FF000216851E8031F226821F4907142E803130D
:10300000002BDAD1216851E8051F226821F0010167
:1030100042E80513DBB1216851E8051F226821F061
:10302000010142E8051393B1216851E8051F2268A8
:1030300021F0010142E805134BB1216851E8051F59
:10304000226821F0010142E80513002BDAD120218A
:1030500084F8421000212163216851E8031F22688F
:1030600021F0100142E80313DBB1216851E8031F8E
:10307000226821F0100142E8031393B1216851E85E
:10308000031F226821F0100142E803134BB12168AD
:1030900051E8031F226821F0100142E80313002BBE
:1030A000DAD1022281B22046626302B0BDE8B040AC
:1030B000FFF742BD216A31F8022B6FF35F224260B5
:1030C00021627AE5002804BF0120704710B504464C
:1030D00090F8410028B9002084F84000204600F014
:1030E00021F8242084F841002068C16821F40051AF
:1030F000C160204600F0F4FA2068016921F4904193
:103100000161416921F02A014161C16841F4005126
:10311000C16000202021606484F8411084F84210CE
:10312000606310BD80B586B0016841F20000C4F252
:103130000100814202D006B080BD00BF002143F6ED
:1031400030020191C4F20202536900F5704043F06D
:1031500010035361536903F010030193019B019124
:10316000136843F001031360126802F00102019238
:10317000019A4FF4C06201920222CDE9022103219B
:1031800004910721059101A9FEF7E6FD2520002104
:103190000022FEF749FF2520FEF732FF06B080BD72
:1031A00090F84230202B1CBF0220704700294FF0BE
:1031B000010318BF002A01D118467047002303639A
:1031C000816222218285C285436480F842100169B0
:1031D000006819B1C16841F48071C1604169002380
:1031E00041F001014161C16841F02001C160184610
:1031F00070470000006841F20001C4F201018842FA
:1032000018BF704740F2700CC2F2000C9CF801002D
:103210000CEB00018A780A2A18BF0D2A10D100236E
:1032200001208B708CF800000CEB0300811C40F235
:103230002C10C2F2000001228CF80130FFF7B0BF61
:103240001F28ECD2431CEFE72DE9F041044690F82B
:10325000410020281CBF0220BDE8F0810D46002956
:103260004FF0010000F0AA801646002A08BFBDE812
:10327000F081002060642120984684F84100FEF728
:1032800045FEA684E684A1680646B1F5805F02D1BA
:103290002069002862D02F460025E08C002861D0EC
:1032A00018F1010018D0B8F1000F37D1216808E0FB
:1032B00017F8010B4860E08C0138E084E08C0028AE
:1032C00051D00868000673D5002FF1D135F8020BF4
:1032D00000276FF35F20EDE7216802E00868000631
:1032E00009D40868000606D4086800065CBF0868B0
:1032F0005FEA0060F2D51FB117F8010B05E000BFCF
:1033000035F8020B00276FF35F204860E08C01382E
:10331000E084E08C0028E4D125E000BF216800BFF4
:103320000868000608D4FEF7F1FD801B404541D82F
:103330002168C868F4E700BF17B117F8010B04E073
:1033400035F8020B00276FF35F204860E08C0138EE
:10335000E084E08C0028E3D105E000BF0027E08C8A
:1033600000289DD12168086840061FD4B8F1000FDD
:103370001ED018F101000FD10868400616D4086865
:10338000400613D40868400610D4086840064FF081
:103390000000F1D50FE000BFFEF7B8FD801B4045EF
:1033A00008D82068C16800684006F5D5002002E012
:1033B000FEF7ACFD0320202184F84110BDE8F08128
:1033C00070470000FEE70000FEE70000FEE7000097
:1033D0007047000040F2D400C2F20000FFF72AB9A3
:1033E000806B0021C187C186FFF722B92DE9F04328
:1033F00081B0089C984615460E468146FEF786FD2C
:10340000201A00EB0804FEF781FD40F20801C2F229
:1034100000010968C1F3CB3161430091D9F8001074
:103420008A683240921BB2FA82F25209AA4203D150
:10343000002001B0BDE8F083074618F101000ED16D
:1034400030E000BF009801380090D9F80000806893
:103450003040801BB0FA80F04009A842E8D0FEF767
:1034600055FDC01BA04227D200980028EAD10024B5
:10347000EBE700BF88683040801BB0FA80F040095D
:10348000A842D5D088683040801BB0FA80F040094F
:10349000A842CDD088683040801BB0FA80F0400947
:1034A000A842C5D088683040801BB0FA80F040093F
:1034B000A842DFD1BCE700BFD9E900014268B1F5FD
:1034C000827F22F0E00242600BD1D9F80810B1F5FA
:1034D000004F02D0B1F5806F03D1016821F04001A7
:1034E0000160D9F82810B1F5005F07D1016821F417
:1034F00000510160016841F400510160012089F828
:103500005100002089F85000032001B0BDE8F0838D
:1035100070470000FEF700BDB0B592B0002443F63E
:103520004000CDE90A44CDE908440594CDE90344BF
:10353000CDE901440094C4F202000168022541F083
:1035400080510160006800F080500090009847F2C0
:1035500000000094C4F20000016841F48041016061
:103560000068A82100F48040009000980120069097
:103570004FF4803007904FF480000D9004200E909F
:10358000119006A80C95CDE90F15FEF797FE18B11E
:1035900072B600BFFEE700BF0F20CDE901054FF472
:1035A000A05004904FF48050059001A80521039489
:1035B000FEF776FD10B172B6FEE700BF12B0B0BDE7
:1035C0004EF68850CEF20000016841F470010160AF
:1035D00070470000806B0021C185FFF7AFBA000083
:1035E00081B090F84210222921D183680246B3F5B8
:1035F000805F09D152F8281F52F8183C002B63D085
:1036000003685B680AE000BF52F8281F13B903691A
:10361000002BF5D003685B6803F07F030B70116823
:1036200001311160C18D01390A04C18502D001B098
:10363000704700BF0168CA6822F02002CA60CA68E9
:1036400022F48072CA604A6922F001024A61202194
:1036500080F8421000214163026B012A3CD10163D2
:10366000016851E8031F026821F0100142E80313CA
:10367000DBB1016851E8031F026821F0100142E844
:10368000031393B1016851E8031F026821F0100190
:1036900042E803134BB1016851E8031F026821F0AF
:1036A000100142E80313002BDAD101680A68D20640
:1036B00006D5002200920A6800924968009100999C
:1036C000818D01B0FFF738BA026852686FF35F224C
:1036D00021F8022B8162A5E701B0FFF78BBD000046
:1036E00010B504460068D4E902C22369016921F4D7
:1036F000405111430161626943EA0C01E3691143DE
:10370000C268194349F20C639A431143C16041698D
:10371000A26921F4407141F20043114340F48062F8
:10372000C4F201039A42416102D1FEF77DFD01E03E
:10373000FEF766FDE16963681922B1F5004FA0FB51
:10374000020123D15A00DB0FFCF7A4FD48F21F5100
:10375000C5F2EB11A0FB01235A094FF69C73C0F68A
:10376000FF7303F1805302FB0300322303EBC0001D
:10377000A0FB01014FF4F87000EA111000EB0210F9
:10378000C1F3421108442168886010BD9A009B0F64
:10379000FCF780FD48F21F51C5F2EB11A0FB01239D
:1037A0005A094FF69C73C0F6FF7302FB03003223E5
:1037B00003EB0010A0FB0101F02000EA511000EB28
:1037C0000210C1F3431108442168886010BD000055
:1037D00040F22C10C2F20000FFF7B2B9FEE7000081
:1037E00088B00026C4F20206FEF7A4FBFFF794FEA1
:1037F000002443F6300007940294C4F202000168EA
:10380000002241F0800101600168102501F0800173
:10381000029102990294016841F00101016000687F
:10382000102100F00100029002983046FEF768FB7C
:103830000120CDE9040403A9304603950694FEF760
:103840008BFA40F2D400A6F55041C2F200004FF4CA
:1038500082724FF40073382780E816000A21C0E90D
:103860000344C0E90543C761C0E90844C0E90A410F
:10387000FEF776FF10B172B6FEE700BF40F22C10E3
:10388000A6F57041C2F200000C234FF4E13280E84B
:103890001600C0E90344C0E90534C461FFF712FC17
:1038A00010B172B6FEE700BF40F2700B40F22C166A
:1038B000C2F2000BC2F200060BF1020130460122F7
:1038C000FFF76EFC9FED538A9FED539A40F2000A7A
:1038D0004FF000080FF218190BF1220746A403ADB0
:1038E000C4F2020A21E000BF38464CA11922FCF7BD
:1038F00072FE3846FCF750FE82B230463946C82385
:10390000FFF7A2FCCBF81E80CBF81A80CBF816800C
:10391000CBF81280CBF80E80CBF80A80CBF806806B
:10392000CBF802800A20FEF703FA9BF8000000287B
:10393000F8D0584600F8028B4946FCF71BFE0028D9
:10394000D2D0053021462A46CDF80C80FCF7F4FD94
:10395000012849D19DED03AAB5EE40AAF1EE10FA77
:10396000B8BFB0EE48AAB4EE49AAF1EE10FAC8BF4B
:10397000B0EE49AA3AEE0A0A00F08EFDBDEEC00A8A
:103980005046102100224C4610EE109AFEF7B8FA6D
:1039900009F03F008DF8080040F2D400C2F20000A8
:1039A00002A901226423FEF773FF50461021012271
:1039B000FEF7A6FA0120FEF7BBF9504610210022BF
:1039C000FEF79EFA1AEE100A01F056F80B4644F67E
:1039D000945102463846C0F60001CDF80090A14649
:1039E00005A4FCF7CFFC84E7384604A118227EE743
:1039F000415454454E000000256600004552524F88
:103A0000523A20696E76616C696420666F726D61EE
:103A1000740D0A00000000000000FC414552524FA6
:103A2000523A20756E6B6E6F776E20636F6D6D61AD
:103A30006E640D0A000000005FEA400C08BF91F0C0
:103A4000000F4FEA8C234FEAC12243EA51514FEA5B
:103A50001C5018BF00F5F0404FEA300018BF41F08D
:103A600000415FEA6C5C00F02980BCF1FF3F08BFB9
:103A700040F080407047130C06BF12044FF0100C4A
:103A80004FF0000C130E04BF12020CF1080C130FC0
:103A900004BF12010CF1040C930F04BF92000CF14F
:103AA000020CD30F04BF52000CF1010C11464FF071
:103AB0000002A0F11F00A0EB0C00704711F0004FB6
:103AC00008BF704731F000413FF4D5AF0B0C06BF83
:103AD00009044FF0100C4FF0000C0B0E04BF09024C
:103AE0000CF1080C0B0F04BF09010CF1040C8B0F37
:103AF00004BF89000CF1020CCB0F04BF49000CF18C
:103B0000010CCCF1200322FA03F341EA030102FA8B
:103B10000CF2A0EB0C0000F10100704723F07F478E
:103B200020F07F4C80EA030000F00040ACEB07037C
:103B300003F57C5303F1FF032DE9804909B44FEAF3
:103B4000144324EA03484FEA154B25EA0B4E0FF2C3
:103B5000042606EB13273E7803FB0667C7F500072C
:103B600007FB06F64FEAD64606F102064FEA54373F
:103B700007FB066CCCF1005C4FEA1C472CEA074CB3
:103B80000CFB06F507FB06F404EB15464FEA961608
:103B900049085FEA320234BF00204FF000404FEA8C
:103BA000D13706FB07FC4FEA1C4C0CFB0BF7D21B72
:103BB00003FB0CF761EB07010CFB0EF7B0EB0740C2
:103BC00072EB17420CFB08F734BFA2EB0742B2EBD3
:103BD000074261EB17414FEA0C444FEA910706FB9D
:103BE00007FC4FEA1C4C0CFB0BF7B0EBC74072EB29
:103BF000573203FB0CF734BFA2EBC742B2EBC7420C
:103C000061EB57310CFB0EF7B0EBC70072EB57724C
:103C10000CFB08F734BFA2EBC702B2EBC70261EBA3
:103C200057714FEA816141EA92114FEA826242EA9A
:103C300090124FEA806004EBCC04039F4FEAD13727
:103C400006FB07FC4FEA1C4C0CFB0BF7D21B03FBDB
:103C50000CF761EB07010CFB0EF7B0EB074072EBC2
:103C600017420CFB08F734BFA2EB0742B2EB074246
:103C700061EB17414FEA8C5504EB9C244FEA910706
:103C800006FB07FC4FEA1C4C0CFB0BF7B0EBC740E4
:103C900072EB573203FB0CF734BFA2EBC742B2EB17
:103CA000C74261EB57310CFB0EF7B0EBC70072EB6C
:103CB00057720CFB08F734BFA2EBC702B2EBC70286
:103CC00061EB57714FEA816141EA92114FEA8262DA
:103CD00042EA90124FEA806015EB4C2544F1000453
:103CE0004FEAD13706FB07FC4FEA1C4C0CFB0BF7E5
:103CF000D21B03FB0CF761EB07010CFB0EF7B0EBDB
:103D0000074072EB17420CFB08F734BFA2EB0742E7
:103D1000B2EB074261EB17414FEA813141EA924130
:103D20004FEA823242EA90424FEA80304FEA0C7604
:103D300015EB1C1544F1000448EA03434EEA0B4816
:103D40004FF0000EB2EB080C71EB030724BF624684
:103D500039464EEB0E0E4FF0000B00185241494110
:103D60004BEB0B0BB2EB080C71EB03077BF1000B79
:103D700024BF624639464EEB0E0E4FF0000B001882
:103D8000524149414BEB0B0BB2EB080C71EB0307B3
:103D90007BF1000B24BF624639464EEB0E0E51EA12
:103DA000020718BF46F0010616EB0E7655F1000229
:103DB00054F1000103D5BDE88901BDE80088BDE8E4
:103DC0008901BDE80048B619524141EB0101A3F158
:103DD0000103704780807F7E7D7C7B7A797877765F
:103DE00076757473727171706F6E6E6D6C6C6B6AD8
:103DF0006A69686867666665646463636261616076
:103E0000605F5F5E5E5D5D5C5C5B5B5A5A595958F2
:103E1000585757565655555554545353525252515C
:103E2000515050504F4F4F4E4E4D4D4D4C4C4C4BB2
:103E30004B4B4A4A4A4949494848484747474746F9
:103E40004646454545444444444343434342424235
:103E50004241414110B546EA06464FEA164646EA57
:103E600042564FEAD22242EA41524FEAD121A3F50B
:103E70007053A3F1010300F02FF820F0004000F090
:103E8000004700F1020CBCF5006F01EB0050114639
:103E900040EA070000D210BDBAF1000F0AD01CB5ED
:103EA00003B44FF004004FF004014FF000000FBCCA
:103EB000BDE810404FF00001BBF1010FB9BF04484D
:103EC0004FF0FF310348002140EA070010BD00BF5A
:103ED000FFFFEF7F0000F07F9C46002B30D477007F
:103EE0002BD04FEA37071CB503B44FF010004FF04A
:103EF0001001BAF1000F06D0BCF1000FDCBF40F09A
:103F0000080040F008014FF000000FBCBDE8104071
:103F10000BF1010BBBF1010F08BF5FEA170722BFCE
:103F200012F1010211F101014FF0004143F10003D0
:103F300000F0004043EA00007047F9D35708D0E78B
:103F400046EA06464FEA164613F1400F1FDD13F10D
:103F5000200FDFBF16430A46002120335B42BED04C
:103F6000C3F1200746EA06464FEA164602FA07F76B
:103F700046EA070622FA03F2C3F1200701FA07F71F
:103F800042EA070221FA03F14FF00003A7E746EAED
:103F9000020646EA06464FEA164646EA0106BCBF56
:103FA00046EA0646360C4FF000034FF000024FF091
:103FB000000194E72DE9804C70B49A46934691E84D
:103FC000380007C831EA400C48BF34EA430C03D537
:103FD000FFF7A4FDFFF780FFF0BCBDE8008C2DE9E2
:103FE000804C70B49A46934691E8380007C831EA8D
:103FF000400C48BF34EA430C03D5FFF78FFDFFF7B1
:1040000029FFF0BCBDE8008C2DE9804C70B49A46C5
:10401000934691E8380007C810F0804F08BF13F0AE
:10402000804F03D100F01AF8FFF756FFF0BCBDE84F
:10403000008C2DE9804C70B49A46934691E8380084
:1040400007C810F0804F08BF13F0804F03D100F075
:1040500005F8FFF7FFFEF0BCBDE8008C20F07F47BD
:1040600023F07F4C80EA030000F0004007EB0C03D4
:10407000A3F57C53A3F1FE0392F0000F00F0B38090
:1040800095F0000F00F077802DE901494FEA1140CB
:1040900021EA00484FEA144624EA064700FB06FCE2
:1040A00008FB06F607FB08F818EB06484CEB164C25
:1040B00000FB07F718EB07484CEB17404FEA124B91
:1040C00022EA0B4E4FEA154625EA06470BFB06FC93
:1040D0000EFB06F607FB0EFE1EEB064E4CEB164CD7
:1040E0000BFB07F71EEB074E4CEB174B18EB0B08BF
:1040F00040F1000018EB0E0B58EB000840F10000F7
:104100008F1A4FF000014FF000063CBFC943661BF9
:1041100014BFB5EB040C00213CBFC943F61B4FEAAA
:10412000174427EA04454FEA1C472CEA074C04FBD6
:10413000076205FB07F70CFB05F616EB074642EB9B
:10414000174204FB0CFC16EB0C4642EB1C421BEB2B
:10415000060658EB020241414EEA8E0E46EA9E06E2
:1041600001D5BDE80189B619524141EB0101A3F126
:104170000103BDE801894FEA144524EA05464FEAE8
:10418000114721EA074C05FB07F406FB07F70CFB78
:1041900006F111EB074144EB174405FB0CFC11EB56
:1041A0000C4144EB1C444FEA124722EA074C05FB42
:1041B00007F206FB07F70CFB06F616EB074642EB89
:1041C000174205FB0CFC16EB0C4642EB1C456A182B
:1041D00054F1000148BF7047B619524141EB01014B
:1041E000A3F10103704795F0000F37D04FEA114259
:1041F00021EA02464FEA144724EA074C02FB07F182
:1042000006FB07F70CFB06F414EB074441EB1741E0
:1042100002FB0CFC14EB0C4441EB1C414FEA15472C
:1042200025EA074C02FB07F506FB07F70CFB06F631
:1042300016EB074645EB174502FB0CFC16EB0C464C
:1042400045EB1C42121951F1000148BF7047B619E5
:10425000524141EB0101A3F1010370474FEA1445BC
:1042600024EA05464FEA114721EA074C05FB07F10E
:1042700006FB07F70CFB06F212EB074241EB174176
:1042800005FB0CFC12EB0C4251EB1C414FF00006FD
:1042900048BF7047921841EB0101A3F10103704739
:1042A00003B401984100009850EAC12018BF0420CF
:1042B0004A0D18BF40F0010040F2FF72B2EB515FAF
:1042C00008BF40F00200012808BF052002B0704777
:1042D00030B52DED048B81B0B0EE408AF0EE608AEF
:1042E0006A4651EC180B00F063F900989FED329B81
:1042F0007E300090002821DC53EC192B51EC180B78
:1043000000F00EFA1AD0002140F608004FF000002D
:10431000044651EC180B00F0BDF908EE100A40F607
:10432000080004EA00014FF00000B5EEC08AF1EE8B
:1043300010FA04BF0220FDF70CFA2DE00098FF28C8
:1043400030DB002108464FF0000000F4400553EC3C
:10435000192B51EC180B00F059FB8CBF00240124E1
:104360000220FDF7F6F99FED168A4DB1002C0CBF27
:104370004FF400004FF48000A84218BF9FED118A4F
:10438000042108464FF00000002C01BFB1EE480A9E
:1043900001B0BDEC048B30BDB0EE480A01B0BDECFD
:1043A000048B30BD51EC180B00F074F901B000EE35
:1043B000100ABDEC048B30BD0000000000000000BE
:1043C0000000807FFFFF7F7F30B540F2FF742DED4E
:1043D000048BF0EE608A18EE901A85B0B0EE408A39
:1043E0009FED2B9B05468DED008B34EA115147D094
:1043F00053EC192B51EC180B00F092F940D02A46DF
:1044000051EC180B00F023FC41EC180B18EE900A4D
:104410008DED008B34EA10501CD053EC192B51EC6D
:10442000180B00F07DF92BD10220FDF792F900F076
:1044300093F810EE901A18EE900A8DED020B8DEDA8
:10444000008B61F31E0003909DED020B05B0BDECE7
:10445000048B30BD0220FDF77CF900F06DF810EE02
:10446000901A18EE900A8DED020B8DED008B61F322
:104470001E0003909DED020B05B0BDEC048B30BD1A
:1044800005B0B0EE480AF0EE680ABDEC048B30BD12
:10449000000000000000000010B52DED028BB0EE12
:1044A000408A18EE100A00F06BFB01EE100A18EEBD
:1044B000100AB7EE000A78EE410A10F0004F4FF0F4
:1044C0007F4010EE901A12D0B1F13F4F24BF10EE92
:1044D000901AB0EB410F12D210EE901AB1F17C5F3E
:1044E0001CDD10EE901AB0EB410F17D314E0B1F1C0
:1044F0003F4F07D910EE901AB0EB410F02D331EEC7
:10450000401A0BE010EE901AB1F17C5F06DB10EE62
:10451000901AB0EB410F01D331EE001A18EE100AD9
:10452000BDEC028B11EE101A61F31E0000EE100AB2
:1045300010BD0000000000009FED050B10B553EC0E
:10454000102B51EC100B00F063F941EC100B10BD77
:1045500000000000000000709FED050B10B553EC4B
:10456000102B51EC100B00F053F941EC100B10BD67
:10457000000000000000001010B5044691ED000B93
:10458000FFF7A6FE84ED000A10BD10B5044690EDBD
:10459000000B0846FFF718FF84ED000B10BD303804
:1045A0000A2801D201207047002070470000000057
:1045B00010B582B01446CDE900010023009A2360B3
:1045C000194B21F0004098422ADA024328D0B0F576
:1045D000801FA8BF226810DA9FED150B53EC102B3B
:1045E0009DED000B51EC100B00F012F9CDE900012C
:1045F0006FF0350221F0004022600F4B6FF31E5127
:1046000003EB20501044206041F0FF5040F0005078
:1046100001909DED000B00BF02B051EC100B10BDDE
:104620009DED000BF8E700000000F07F00000000A7
:10463000000000000000504302FCFFFF10B50029FD
:104640000AD00878002807D005487844FDF7BCFA5E
:10465000002801D0002010BD0248784410BD0000A1
:10466000960700008E07000010B500290AD00878D0
:10467000002807D005487844FDF7A6FA002801D0A5
:10468000002010BD0248784410BD000086070000DD
:104690007E07000021F0004201F00043A2F16052C9
:1046A000B2F5801F28BFD2F17F6C0BD95FEA001CE6
:1046B00043EAC20242EB507018BF704728BF20F097
:1046C00001007047B2F5801FBCBF184670474FEA23
:1046D000410C1CF5001F02D2084600F04BBA70B521
:1046E00000F040F900000089FFF7F6BF4FF00040EE
:1046F000A0F580007047000002494FF0000000F074
:1047000074BA00BF0000F87F491058BFC1F14041A2
:104710005B1058BFC3F140438B42EFF300807047FA
:1047200051EA030C17D41CF5801F58BFBCF5801F3D
:1047300000F10680994218BF704708BF9042704749
:1047400007D711F5801F58BF13F5801F19D4994260
:104750007047894270471CF5801F08D5BCF5801F43
:10476000F7D58B4218BF704708BF824270474FF49D
:10477000001C1CEB410F38BF1CEB430F01D28B42D6
:10478000704770B500F0EEF8922449004FF00051E8
:104790004FF08053FFF7B8BF51EA030C17D41CF554
:1047A000801F58BFBCF5801F00F10680994218BFDA
:1047B000704708BF9042704707D711F5801F58BF58
:1047C00013F5801F19D499427047894270471CF530
:1047D000801F08D5BCF5801FF7D58B4218BF7047E6
:1047E00008BF824270474FF4001C1CEB410F38BFDA
:1047F0001CEB430F01D28B42704770B500F0B2F84A
:10480000922449004FF000514FF08053FFF77CBFD6
:1048100070B5DFF848C11CEA111E1EBF1CEA131553
:104820009EEA0C0F95EA0C0F00F06F8081EA0304FA
:104830004EEAD47EAE4421EA4C1123EA4C1341F4F3
:10484000801143F48013AEF17F7EA1FB024CA0FBEC
:104850000365361955EB0C05A1FB034C4CF1000325
:10486000A0FB021C16EB0C06654153F10003094244
:1048700018BF46F0010613F4007F0BD14FEA033155
:104880004FEA053041EA155140EA165034036FF003
:1048900003020AE04FEAC3214FEAC52041EA55511D
:1048A00040EA5650F4026FF0020202EB2E4201EB96
:1048B000025585EACE710AD05FEA440C18BF24F095
:1048C000004450F1000041F1000120EAD47040F2B0
:1048D000FE7C624500D270BDA84214BF4FF08044F8
:1048E0004FF04044002E08BF0024BEF1806FA8BFE7
:1048F000A1F1C041BDE8704080F2828001F1C04169
:1049000001F000414FF0000070470CEA13159EEAD9
:104910000C0F18BF95EA0C0F06D081EA030E4FF07A
:1049200000000EF0004170BD00F01CF88900013E4F
:1049300000F007B800F009B84FEA430C5FEA5C5C8E
:1049400008D081EA030100F05BB84FEA410C5FEA4E
:104950005C5CF6D102494FF0000070470000FF0791
:104960000000F87F0EF1020E2EF0030E5EF8046BCD
:10497000364205D4012A43EB030515F5001F12D872
:10498000012841EB010C1CF5001F0CD80ED14FEA99
:10499000D17C0CEB4C0C0CF1020C15F5001F08BF80
:1049A0004CEBD37C04E04FF0080C01E04FEAD37CE1
:1049B0000CEB4C0526FA05F606F00706B6F1040CDA
:1049C00006D20EEB860CBDE870404CF0010C60473F
:1049D000DFE80CF0090B02024FF00041A1F50021C5
:1049E0004FF0000070BD19461046012851EB01043C
:1049F00018BFD4F5001484BF002001F0004170BD41
:104A00000808A0F500114FEA3101704753EA010C84
:104A100017D41CF5801F58BFBCF5801F00F106801D
:104A20008B4218BF704708BF8242704707D713F503
:104A3000801F58BF11F5801F19D48B4270479B42CD
:104A400070471CF5801F08D5BCF5801FF7D599422B
:104A500018BF704708BF904270474FF4001C1CEB12
:104A6000430F38BF1CEB410F01D2994270470FB47E
:104A70000CBC03BCFFF7C1BE43004FEAD30C4FEAA6
:104A80003C0C43401FBF40070CF1605113F0FE4F38
:104A900070471CF0006F03D10CF0004100207047FC
:104AA0000CF0004343EA507040EACC0010B500F02F
:104AB0000EF800BF000000924FEA0001FFF7A0BF10
:104AC0004FF00041A1F500214FF0000070470EF1BA
:104AD000020E2EF0030E5EF8044B244204D44FEA7B
:104AE0004102B2F17F4F11D84FEA4003B3F17F4F3B
:104AF0000CD80ED14FEAD07C0CEB4C0C0CF1020C14
:104B0000B2F17F4F08BF4CEBD17C04E04FF0080CB2
:104B100001E04FEAD17C0CEB4C0324FA03F404F0DF
:104B20000704B4F1040C06D20EEB840CBDE810406F
:104B30004CF0010C6047DFE80CF0070802024FF070
:104B40000040A0F5800010BD0846420018BFD2F119
:104B5000807288BF00F0004010BDF1EE100A4FF6E1
:104B6000FF71C0F2C03120EA010040F04070E1EE78
:104B7000100A7047FF2141EAD050C005704700007D
:104B80005FEA400C5FEA1C6CBCF17F0314D4D3F1E4
:104B9000170240F31C804FF0010C0CFA02FCACF140
:104BA0000103034020EA0300B3EB5C0208BF10EAF4
:104BB0000C0F88BF60447047B3F1FF3F28BF5FEA26
:104BC000002C00F0004088BF40F07E507047BCF1E0
:104BD000FF0FB8BF704710B5FFF779FF40DBB6BED7
:104BE0004FF000007047FBF76FBE0CF00F03092B6E
:104BF00008BF082000F05F800A2B0BD0082B18BFDD
:104C0000704708BF1CF0400F0AD04FF000004FF073
:104C1000000170471CF0400F18BF4FF00040704774
:104C20001CF0100F08D000F07F4220F0704342EAE1
:104C3000D3014FEA4370704700F0604021F07F429B
:104C400042EA000201F07F4040EA727070474FF084
:104C5000FF0C4CF4E06C1CEA11531CBF9CEA030CE3
:104C60009445C2BFDA4201EB02517047002B0DD0D0
:104C7000BCF1000F0FD001F00041002AA4BF41F0A9
:104C8000E04141F07F614FF00000704701F00041CA
:104C90004FF00000704750EA01334FF09B0C18BFF3
:104CA0004CF0806C7FF428AD7047FCF787B8FCF7B8
:104CB00057BDFCF7E5BE1CF4801F11D01CF4E02F9B
:104CC00003D06FEACC31490070474FF04050EFF30A
:104CD000008222F0704242EA000282F300887047AC
:104CE0004FF000007047000002400000000000A0EC
:104CF0000000000005400000000000C800000000A7
:104D00000C4000000000409C000000001940000022
:104D10000020BCBE0000000034400000BFC91B8E54
:104D200000000004B5400000504BCFD06607E2CF32
:104D3000010000006C4100003E8251AADFEEA73462
:104D400001000000D9420000DCB5A0E23A301F9714
:104D5000FFFFFFFFB4450000FD25A0C8E9A3C14F38
:104D6000FFFFFFFFFF3F0000000000800000000089
:104D7000FF3F000000000080000000000000000075
:104D800000000000010203040607080900000000FB
:104D9000010203044F4B3A20252E31662064422045
:104DA0007365742028636F6465202564290D0A00EB
:104DB000104F00080000002010000000C40100088F
:104DC000204F00081000002068070000E0010008E4
:104DD000000000000000F07FFFFFFFFFFFFFEF7FFC
:104DE0001C00000043000000F8FFFFFF0C00000063
:104DF0000E0000000F0000002E0000001001000057
:104E000043000000F8FFFFFF0040404040404040AA
:104E1000404041414141414040404040404040408D
:104E20004040404040404040400502020202020231
:104E30000202020202020202022020202020202080
:104E40002020200202020202020290909090909094
:104E50001010101010101010101010101010101052
:104E600010101010020202020202888888888888C6
:104E700008080808080808080808080808080808B2
:104E800008080808020202024000000000000000BA
:104E90000000000000000000000000000000000012
:104EA0000000000000000000000000000000000002
:104EB00000000000000000000000000000000000F2
:104EC00000000000000000000000000000000000E2
:104ED00000000000000000000000000000000000D2
:104EE00000000000000000000000000000000000C2
:104EF00000000000000000000000000000000000B2
:104F000000000000000000000000000000000000A1
:104F100001000000100000000024F4000000000068
:040000050800018965
:00000001FF
